:100000000C945A000C946F000C946F000C946F00C9
:100010000C946F000C946F000C946F000C946F00A4
:100020000C946F000C946F000C946F000C946F0094
:100030000C946F000C946F000C946F000C946F0084
:100040000C946F000C946F000C946F000C946F0074
:100050000C946F000C946F000C946F000C946F0064
:100060000C946F000C946F000C946F000C946F0054
:100070000C946F000C946F000C946F000C946F0044
:100080000C946F000C946F000C946F000C946F0034
:100090000C946F000C946F000C946F000C946F0024
:1000A0000C946F000C946F000C946F000C946F0014
:1000B0000C946F0011241FBECFEFD8E0DEBFCDBF80
:1000C00011E0A0E0B1E0E4E9F4E002C005900D9297
:1000D000A031B107D9F70E9426020C9448020C9473
:1000E00000001092B90088E48093B800089584E875
:1000F0008093BC00ECEBF0E080818823ECF78091EA
:10010000BB00089594EA9093BC00ECEBF0E0908182
:100110009923ECF79091B900987F983011F09031C5
:10012000A1F48093BB0084E88093BC00ECEBF0E08A
:1001300080818823ECF79091B900987F983139F04D
:1001400081E0903429F480E0089581E0089580E012
:100150000895CF93DF93ECEBF0E024EAA9EBB0E055
:10016000CBEBD0E034E844E9208390819923ECF78D
:100170009C91987F983011F09031B1F7888330834B
:1001800090819923ECF79C91987F903211F09835EB
:1001900029F44083908194FDFDCFE6CFDF91CF918C
:1001A00008958093BB0084E88093BC00ECEBF0E002
:1001B00080818823ECF79091B900987F81E0983294
:1001C00009F480E008950E948200089584E98093F4
:1001D000BC00ECEBF0E0808184FDFDCF0895CF936F
:1001E000DF93D82FC62F80E40E94A9008D2F0E9494
:1001F000D1008C2F0E94D1000E94E600DF91CF91A8
:100200000895CF93C82F80E40E94A9008C2F0E94EC
:10021000D10081E40E94E3000E947700C82F0E9471
:10022000E6008C2FCF91089581E00E9401012FEF0D
:1002300039EF90E0215030409040E1F700C00000DD
:10024000982F9F709F3051F0982F917080FF0BC0B6
:1002500081FF06C082FF06C093E005C090E103C0A5
:1002600091E001C092E0892F089567E083E00E9449
:10027000EF002FEF89EF90E0215080409040E1F7B0
:1002800000C000000E941401803181F46BE083E023
:100290000E94EF002FEF89EF90E0215080409040C6
:1002A000E1F700C000000E9414018C5F803110F162
:1002B0006DE083E00E94EF002FEF89EF90E0215086
:1002C00080409040E1F700C000000E941401885F68
:1002D000803180F06EE083E00E94EF002FEF89EF25
:1002E00090E0215080409040E1F700C000000E9463
:1002F0001401845F813108F080E10895CF930E945A
:100300003501C82F0E943501C817E1F38C2FCF911A
:1003100008958FEF85B92FEF8FE493EC2150804043
:100320009040E1F700C0000015B8089585E090E026
:100330002FEF25B93FEF49E658E13150404050409A
:10034000E1F700C0000015B83FEF49E658E1315031
:1003500040405040E1F700C00000019751F7089578
:1003600099B19F70890F8BB95B9A8BB11BB80895B7
:100370005B9A8BB11BB80895CF93C82F807F0E94E2
:10038000B0018C2F8F700E94B001CF9108955A9ABE
:100390000E94BC0185EE8A95F1F7000008959BB19B
:1003A0001BB80E94BC0185EE8A95F1F70000089504
:1003B0002FEF83EF91E0215080409040E1F700C0A3
:1003C000000080E38BB90E94B80120ED2A95F1F777
:1003D0000E94B80180ED8A95F1F70E94B80190ED76
:1003E0009A95F1F780E28BB90E94B80120ED2A9529
:1003F000F1F708950E94D80188E20E94CF018CE0B5
:100400000E94CF0181E00E94CF0187EE97E1019722
:10041000F1F700C0000086E00E94CF0108950E941D
:100420007E01803139F0E82FF0E0E050FF4F80810D
:1004300081110BC00E947E018031E1F3E82FF0E0D2
:10044000E050FF4F80818823A9F308950E94710036
:100450008FEF84B90E94FA0181E60E94C7016FE024
:1004600087E00E94EF000E940F02C82F81E00E94E7
:10047000CF018C2F0E94C7010E940F02C43329F4C0
:10048000853319F40E948901EECF0E949601EBCFCB
:04049000F894FFCF0E
:100494003132334134353642373839432A302344F4
:00000001FF
