:020000020000FC
:040000000C94350027
:100054005F934F93409178005091790087D005B910
:100064005F914F91189588E08EBF8FEF8DBF83E22B
:1000740080937C008FE880937A008FE384B9002713
:1000840011275B9A80917A00806480937A00809132
:100094007A0086FDFCCF82E090E0CED00030E9F516
:1000A400A6D082E090E0C8D087E495D082E090E0CA
:1000B400C3D081E490D082E090E0BED083E58BD0C1
:1000C40082E090E0B9D080E286D082E090E0B4D0C3
:1000D40084E481D082E090E0AFD085E47CD082E0FB
:1000E40090E0AAD084E577D082E090E0A5D085E4C2
:1000F40072D082E090E0A0D083E46DD082E090E002
:100104009BD084E568D082E090E096D085E463D00B
:1001140082E090E091D084E45ED069D082E090E007
:100124008BD083E458D082E090E086D08CE453D026
:1001340082E090E081D085E44ED082E090E07CD0F3
:1001440081E449D082E090E077D082E544D082E037
:1001540090E072D085E43FD082E090E06DD084E4FA
:100164003AD088E590E068D00C9443006F934F93A5
:100174005F93463430F001E066E907D06FEF05D0B5
:1001840008D05F914F916F910895461708F0069536
:100194000895503059F0513011F408E007C052303E
:1001A40011F400E103C0533009F400E208958F9381
:1001B40099B19F70807F890F8BB95B9A5B988F91FF
:1001C4008295807F890F8BB95B9A000000005B9851
:1001D4000000000008955A9AEADF8BE290E059D0BB
:1001E40008955A98E4DF87E290E053D0089588E2B6
:1001F40090E022D080E38BB95B9A5B9887E290E031
:1002040048D080E38BB95B9A5B9887E290E041D059
:1002140080E28BB95B9A5B9887E290E03AD088E2FF
:10022400E0DF8CE0DEDF81E0DCDF8AEF95E031D0D7
:1002340086E0D7DF089508958F939F93AF93BF937C
:100244000197DC0185EE93E024D0CD01891749F0B4
:10025400F2DFF1DFF0DFEFDFEEDF000000000C94EF
:100264002201803061F0E7DFE6DFE5DFE4DF000054
:10027400000000000000000000000C942201DBDFFD
:100284000C9444010C944601BF91AF919F918F91BE
:1002940008958F939F930197813041F00C945201FC
:1002A4000C9454010C9456010C944D01903031F08F
:1002B4000C945C010C945E010C944D010C9462014D
:1002C4000C9464010000000000009F918F91089538
:00000001FF
