:020000020000FC
:0200000002C03C
:1000040042C08FEF4DBE88E08EBF882784B98FEF42
:1000140087B983E08093690081E08DBB7894AA2737
:10002400A8B980E895E204D0A395A032C1F3F8CF33
:100034008F939F93019718D0891751F4803081F0E2
:100044000E9435000C942600000000000C941C0053
:100054000E9435000C942E000C9430000C941C006B
:100064009F918F9108950895AF93A0E5FCDFAA9521
:1000740000000000D9F7AF910C9440000C944200AA
:100084000000089508959F938F938FB78F9381E015
:100094008CBB80E590E0CCDF8CB38030C1F788273F
:1000A40093B1909511D088B980E89EE3C1DF8F9118
:1000B4008FBF8F919F9118959F939170913011F4F8
:1000C400880F01969F910895AF93A6E0F5DF96956A
:0A00D400AA95A030D9F7AF91089566
:00000001FF
