:100000000C945A000C9464000C9464000C946400EA
:100010000C9464000C9464000C9464000C946400D0
:100020000C9464000C9464000C9464000C946400C0
:100030000C9464000C9464000C9464000C946400B0
:100040000C9464000C9464000C9464000C946400A0
:100050000C9464000C9464000C9464000C94640090
:100060000C9464000C9464000C9464000C94640080
:100070000C9464000C9464000C9464000C94640070
:100080000C9464000C9464000C9464000C94640060
:100090000C9464000C9464000C9464000C94640050
:1000A0000C9464000C9464000C9464000C94640040
:1000B0000C94640011241FBECFEFD8E0DEBFCDBF8B
:1000C0000E946F000C949D000C94000082E88093C5
:1000D00080008AE18093810080EF8AB908950E94B0
:1000E0006600789410928800109287001092860023
:1000F000A8E8B0E07FE7E6E8F0E060E45DE34FE128
:100100003EE18FE028E0489904C07C936083489BDF
:10011000FECF499904C05C934083499BFECF4A9926
:1001200004C03C9380834A9BFECF4B9904C08C93C0
:0E01300020834B9BFECF99B1E6CFF894FFCF12
:00000001FF
