:020000020000FC
:020000001AC024
:020008002CC00A
:1000340031C08FEF4DBE88E08EBF8FEF84B9882723
:1000440087B98CE08093690082E08DBB81E0809366
:100054006F0085E08093810078942BD0FECFAF931E
:10006400AFB78F939F9382E08CBB80E590E02ED056
:100074008CB38030C1F7BF3F21F4B5B980E49FE170
:1000840025D00ED0BFEFA1E0A5B99F918F91AFBF4E
:10009400AF911895AF93AA27A5B9BB27AF9118952F
:1000A4008F938BE0809385008CED809384008F91F7
:1000B40008958F9386B18072803011F08F910895E6
:1000C400EFDFBFEF81E085B98F9108958F939F9300
:1000D400019718D0891751F4803081F00E94830071
:1000E4000C947400000000000C946A000E948300C9
:1000F4000C947C000C947E000C946A009F918F9168
:1001040008950895AF93A0E5FCDFAA9500000000D0
:10011400D9F7AF910C948E000C94900000000895D0
:0201240008953C
:00000001FF
