:020000020000FC
:0200000004C03A
:100008001BC08FEF4DBE88E08EBF8FEF84B98CE0A8
:100018008093690082E08DBB7894A1E088279927B6
:10002800891711F4803031F0A5B90E944C00BB2724
:100038008827992785B9F4CFAF93AFB78F9382E01C
:100048008CBB80E590E024D08CB38030C1F7BF3FF3
:1000580011F4B5B912D080E09AEFBFEFAF91AFBFFE
:10006800AF9118958F93BFEF81E085B980E09AEF43
:100078000FD0882785B98F910895AF9380E49FE1C9
:1000880007D080E09AEFA1E0A5B9BB27AF9108950A
:100098008F939F93019718D0891751F4803081F07E
:1000A8000E9467000C945800000000000C944E0059
:1000B8000E9467000C9460000C9462000C944E003F
:1000C8009F918F9108950895AF93A0E5FCDFAA95BD
:1000D80000000000D9F7AF910C9472000C947400E2
:0600E800000008950895D8
:00000001FF
