:020000020000FC
:040000000C943E001E
:100054000F931F9350917800409179000AE05795CF
:10006400479501500030D9F78A01441F551F400FAE
:10007400511F0F911F91189588E08EBF8FEF8DBF90
:1000840080E680937C008FE880937A008FE384B9C4
:10009400AA2778945B9A80917A00806480937A008E
:1000A40080917A0086FDFCCF82E090E0AED0517062
:1000B400441F551F441F551F4BD0F3D081D082E0FD
:1000C40090E0A3D018D081E46FD082E090E09DD07E
:1000D40082E090E09AD0402F0ED066D082E090E08B
:1000E40094D0412F61D082E090E08FD0E5D088EEAB
:1000F40093E08BD0CFCF403011F440E308954130EA
:1001040011F441E30895423011F442E30895433079
:1001140011F443E30895443011F444E30895453061
:1001240011F445E30895463011F446E30895473049
:1001340011F447E30895483011F448E30895483032
:1001440011F448E30895493011F449E308950895FA
:100154000F931F932F933F93002712E326E0352F2D
:100164003078303809F4010F1695550F352F21508A
:100174002030B1F7502F3F912F911F910F91089587
:100184008F9399B19F70807F890F8BB95B9A5B982D
:100194008F918295807F890F8BB95B9A0000000054
:1001A4005B980000000008955A9AEADF8BE290E021
:1001B40059D008955A98E4DF87E290E053D0089527
:1001C40088E290E022D080E38BB95B9A5B9887E267
:1001D40090E048D080E38BB95B9A5B9887E290E02B
:1001E40041D080E28BB95B9A5B9887E290E03AD089
:1001F40088E2E0DF8CE0DEDF81E0DCDF8AEF95E09F
:1002040031D086E0D7DF089508958F939F93AF93FD
:10021400BF930197DC0185EE93E024D0CD018917CB
:1002240049F0F2DFF1DFF0DFEFDFEEDF0000000086
:100234000C940B01803061F0E7DFE6DFE5DFE4DFFB
:100244000000000000000000000000000C940B01FE
:10025400DBDF0C942D010C942F01BF91AF919F9182
:100264008F9108958F939F930197813041F00C945F
:100274003B010C943D010C943F010C9436019030E9
:1002840031F00C9445010C9447010C9436010C9404
:100294004B010C944D010000000000009F918F91D0
:1002A40008955F9300275A3020F05A5003950C9418
:1002B4005501152F5F9108950F9301E0A00FA0340D
:0A02C40009F4AA27A5B90F910895C7
:00000001FF
