:100000000C945A000C9464000C9464000C946400EA
:100010000C9464000C9464000C9464000C946400D0
:100020000C9464000C9464000C9464000C946400C0
:100030000C9464000C9464000C9464000C946400B0
:100040000C9464000C9464000C9464000C946400A0
:100050000C9464000C9464000C9464000C94640090
:100060000C9464000C9464000C9464000C94640080
:100070000C9464000C9464000C9464000C94640070
:100080000C9464000C9464000C9464000C94640060
:100090000C9464000C9464000C9464000C94640050
:1000A0000C9464000C9464000C9464000C94640040
:1000B0000C94640011241FBECFEFD8E0DEBFCDBF8B
:1000C0000E94FC000C9418010C9400001092B900DE
:1000D00088E48093B8000895CF93DF93ECEBF0E0D1
:1000E00024EAA9EBB0E0CBEBD0E034E844E920838C
:1000F00090819923ECF79C91987F983011F0903182
:10010000B1F78883308390819923ECF79C91987F95
:10011000903211F0983529F44083908194FDFDCF01
:10012000E6CFDF91CF9108958093BB0084E8809360
:10013000BC00ECEBF0E080818823ECF79091B900F3
:10014000987F81E0983209F480E0089584E98093F3
:10015000BC00ECEBF0E0808184FDFDCF0895CF93EF
:10016000DF93D82FC62F80E40E946C008D2F0E9451
:1001700094008C2F0E9494000E94A600DF91CF91E2
:10018000089580EF84B98FEF87B90895E3B1F3B193
:10019000B3B1A3B1B2FB882780F990E0A3FB442759
:1001A00040F950E084239523F1FB662760F970E065
:1001B0002E2F217030E020953095A901482759272E
:1001C0009B0124233523822793278170089583B1CF
:1001D00023B193B133B12695217033FB332730F926
:1001E000232B92FB992790F981708923822311F0A8
:1001F00080E0089582E008950E94C1000E94660098
:1002000060E086E00E94AF000E94C600C82F0E94F6
:10021000E7006C2F680F82E00E94AF002FEF83EDA4
:1002200090E3215080409040E1F700C00000ECCF07
:04023000F894FFCF70
:00000001FF
