:020000020000FC
:0200000004C03A
:100008001CC08FEF4DBE88E08EBF88278AB98FEF5E
:1000180087B98CE08093690082E08DBB7894A0E07A
:10002800A8B9BB27B5B9B39580E49FE127D0B03113
:1000380009F4BB271BD00C9416009F938F938FB79E
:100048008F9382E08CBB80E590E018D08CB3803031
:10005800C1F7A395A03209F4A0E0A8B980E49FE114
:100068000DD08F918FBF8F919F911895AF93A9B1A4
:10007800A095A170A130D9F3AF9108958F939F9364
:10008800019718D0891751F4803081F00E945D00E3
:100098000C944E00000000000C9444000E945D0087
:1000A8000C9456000C9458000C9444009F918F9126
:1000B80008950895AF93A0E5FCDFAA95000000001D
:1000C800D9F7AF910C9468000C946A000000089569
:0200D800089589
:00000001FF
