:100000000C945A000C946C000C946E000C946C00D0
:100010000C946C000C946C000C946C000C946C00B0
:100020000C946C000C946C000C946C000C946C00A0
:100030000C946C000C949A000C946C000C946C0062
:100040000C946C000C946C000C946C000C946C0080
:100050000C946C000C946C000C946C000C946C0070
:100060000C946C000C946C000C946C000C946C0060
:100070000C946C000C946C000C946C000C946C0050
:100080000C946C000C946C000C946C000C946C0040
:100090000C946C000C946C000C946C000C946C0030
:1000A0000C946C000C946C000C946C000C946C0020
:1000B0000C946C0011241FBECFEFD8E0DEBFCDBF83
:1000C00021E0A0E0B1E001C01D92A130B207E1F74C
:1000D0000E94A7000C94C2000C9400001F920F9283
:1000E0000FB60F9211242F938F939F93809100014D
:1000F000811105C081E085B9809300010DC08FEFAB
:1001000085B92FEF89E698E1215080409040E1F7D2
:1001100000C0000081E085B98AEE9CE090938500E4
:10012000809384009F918F912F910F900FBE0F901D
:100130001F9018951F920F920FB60F92112415B8A9
:10014000109200010F900FBE0F901F9018958CE039
:100150008093690082E08DBB81E080936F0085E031
:100160008093810078948FEF84B981E0E4E8F0E037
:100170002AEE3CE03599FECF85B9809300013183AA
:080180002083F8CFF894FFCFB3
:00000001FF
