:020000020000FC
:100000008FEF4DBE88E08EBF80EF8AB982E8809383
:1000100080008DE18093810078948FEF84B950E067
:1000200008D024D02FD043D057D06BD07FD00C94A1
:1000300012004F93EF93FF932F930F92F1E0E6E4BA
:10004000452F550F2227E50FF21FC895602DF1E0CF
:10005000E6E455E0540F550FE50FF21FC895702DDB
:100060000F902F91FF91EF914F9108952F93222799
:100070002093890070938800209387006093860006
:100080002F9108958F935F9389B18095817081300E
:1000900019F05F918F91089551E0CBDFE7DF89B1CF
:1000A000809581708130D9F35F918F9108958F93FE
:1000B0005F9389B180958270823019F05F918F9142
:1000C000089552E0B6DFD2DF89B180958270823028
:1000D000D9F35F918F9108958F935F9389B1809544
:1000E0008470843019F05F918F91089553E0A1DFFF
:1000F000BDDF89B1809584708430D9F35F918F9191
:1001000008958F935F9389B180958870883019F036
:100110005F918F91089554E08CDFA8DF89B18095BD
:1001200088708830D9F35F918F9108955F938F9392
:1001300089B180958F70803019F450E07ADF96DFB6
:100140005F918F91089500007C003D001E000F001C
:0A01500000003E001F000F00080031
:00000001FF
