:020000020000FC
:100000008FEF4DBE88E08EBF80EF8AB982E8809383
:1000100080008DE180938100789450E008D024D056
:100020002DD040D054D068D07CD00C9410004F9389
:10003000EF93FF932F930F92F1E0ECE3452F550FD1
:100040002227E50FF21FC895602DF1E0ECE355E0A3
:10005000540F550FE50FF21FC895702D0F902F917B
:10006000FF91EF914F9108952F937093880022276D
:1000700020938700609386002F9108958F935F935C
:1000800089B180958170813019F05F918F910895C9
:1000900051E0CDDFE9DF89B181708130C9F35F9133
:1000A0008F9108958F935F9389B18095827082308C
:1000B00019F05F918F91089552E0B9DFD5DF89B1D2
:1000C000809582708230C1F35F918F9108958F93F4
:1000D0005F9389B180958470843019F05F918F911E
:1000E000089553E0A4DFC0DF89B180958470843027
:1000F000C1F35F918F9108958F935F9389B180953C
:100100008870883019F05F918F91089554E08FDFE7
:10011000ABDF89B1809588708830C1F35F918F9192
:1001200008955F938F9389B180958F70803019F413
:1001300050E07DDF99DF5F918F91089500007C0092
:100140003D001E000F0000003E001F000F000800D1
:00000001FF
