:100000000C945A000C9464000C9464000C946400EA
:100010000C9464000C9464000C9464000C946400D0
:100020000C9464000C9464000C9464000C946400C0
:100030000C9464000C9464000C9464000C946400B0
:100040000C9464000C9464000C9464000C946400A0
:100050000C9464000C9464000C9464000C94640090
:100060000C9464000C9464000C9464000C94640080
:100070000C9464000C9464000C9464000C94640070
:100080000C9464000C9464000C9464000C94640060
:100090000C9464000C9464000C9464000C94640050
:1000A0000C9464000C9464000C9464000C94640040
:1000B0000C94640011241FBECFEFD8E0DEBFCDBF8B
:1000C0000E9416010C9456010C94000084E8809361
:1000D000BC00ECEBF0E080818823ECF78091BB0062
:1000E00008951092B90088E48093B800089594EAC6
:1000F0009093BC00ECEBF0E090819923ECF79091A9
:10010000B900987F983011F09031A1F48093BB0032
:1001100084E88093BC00ECEBF0E080818823ECF76E
:100120009091B900987F983139F081E0903429F4AA
:1001300080E0089581E0089580E00895CF93DF93F3
:10014000ECEBF0E024EAA9EBB0E0CBEBD0E034E854
:1001500044E9208390819923ECF79C91987F983013
:1001600011F09031B1F78883308390819923ECF7B7
:100170009C91987F903211F0983529F440839081BA
:1001800094FDFDCFE6CFDF91CF9108958093BB0022
:1001900084E88093BC00ECEBF0E080818823ECF7EE
:1001A0009091B900987F81E0983209F480E0089539
:1001B0000E947700089584E98093BC00ECEBF0E0A6
:1001C000808184FDFDCF0895CF93DF93D82FC62F74
:1001D00080E40E949E008D2F0E94C6008C2F0E94FA
:1001E000C6000E94DB00DF91CF910895CF93C82F06
:1001F00080E40E949E008C2F0E94C60081E40E9431
:10020000D8000E946600C82F0E94DB008C2FCF917F
:1002100008958FEF84B987B90895982F817091FD63
:100220008E5F92FD8C5F93FD885F08950E940901A7
:100230000E94710060E086E00E94E40060EF87E0C9
:100240000E94E4002FEF33ED80E3215030408040E6
:10025000E1F700C0000061E083E00E94E4009FEF4E
:1002600023ED30E3915020403040E1F700C0000022
:1002700081E00E94F6009FEF23ED30E39150204093
:100280003040E1F700C0000082958F700E940D01A0
:10029000682F82E00E94E4008FEF93ED20E381500D
:1002A00090402040E1F700C00000E2CFF894FFCF7B
:00000001FF
