:100000000C945A000C946F000C946F000C946F00C9
:100010000C946F000C946F000C946F000C946F00A4
:100020000C946F000C946F000C946F000C946F0094
:100030000C946F000C946F000C946F000C946F0084
:100040000C946F000C946F000C946F000C946F0074
:100050000C946F000C946F000C946F000C946F0064
:100060000C946F000C946F000C946F000C946F0054
:100070000C946F000C946F000C946F000C946F0044
:100080000C946F000C946F000C946F000C946F0034
:100090000C946F000C946F000C946F000C946F0024
:1000A0000C946F000C946F000C946F000C946F0014
:1000B0000C946F0011241FBECFEFD8E0DEBFCDBF80
:1000C00011E0A0E0B1E0EEE4F1E002C005900D9295
:1000D000AA31B107D9F70E947B000C94A5000C94BB
:1000E000000081E8809380008AE0809381008FEF98
:1000F00084B91AB808950E947100789480910C0117
:100100008093880086E090E0A8E8B0E049990DC0AF
:10011000499BFECF8C30910544F40196FC01EE0F13
:10012000FF1FE050FF4F20812C934A99EFCF4A9B4D
:10013000FECF1816190654F70197FC01EE0FFF1FAA
:0E014000E050FF4F20812C93E1CFF894FFCFC9
:10014E0005001A002E00420057006B00800094003C
:0A015E00A800BD00D100E600FA0081
:00000001FF
