:020000020000FC
:100000008FEF4DBE88E08EBF8FEF8AB940E86894CD
:1000100084EF91E01BD01EF005D00C9408000CD0AA
:100020000C940800440F40384BB909F008956894C7
:1000300088EE93E00BD00895469541304BB909F016
:100040000895E89488EE93E001D008958F939F93EC
:10005000019718D0891751F4803081F00E94410037
:100060000C943200000000000C9428000E94410013
:100070000C943A000C943C000C9428009F918F91B2
:1000800008950895AF93A0E5FCDFAA950000000055
:10009000D9F7AF910C944C000C944E0000000895D9
:00000001FF
