:020000020000FC
:100000008FEF4DBE88E08EBF8FEF84B988278AB905
:1000100081E8809380008AE080938100789446E0B4
:1000200004D028D016D00C941100CF93EF93FF93F7
:100030000F92F0E0E8E9542F550F2227E50FF21F49
:10004000C895602D609388000F90FF91EF912F91DC
:1000500008958F9389B18470803099F08F910895BD
:1000600089B184708030E1F3403009F04150DDDF28
:100070008F9108958F9389B18270803011F08F91A4
:10008000089589B182708230E1F74C3019F081E037
:10009000480FCBDF8F91089505001A002E00420013
:1000A00057006B0080009400A800BD00D100E6005E
:0200B000FA0054
:00000001FF
