:100000000C945A000C946C000C946E000C946C00D0
:100010000C946C000C946C000C946C000C946C00B0
:100020000C946C000C946C000C946C000C946C00A0
:100030000C946C000C946C000C946C000C946C0090
:100040000C946C000C946C000C946C000C946C0080
:100050000C946C000C946C000C946C000C946C0070
:100060000C946C000C946C000C946C000C946C0060
:100070000C946C000C946C000C946C000C946C0050
:100080000C946C000C946C000C946C000C946C0040
:100090000C946C000C946C000C946C000C946C0030
:1000A0000C946C000C946C000C946C000C946C0020
:1000B0000C946C0011241FBECFEFD8E0DEBFCDBF83
:1000C00021E0A0E0B1E001C01D92A630B207E1F747
:1000D0000E949D000C94E2000C9400001F920F926D
:1000E0000FB60F9211242F938F939F9381E08093EB
:1000F000040180910501811105C081E085B98093DB
:10010000050113C081E090E0909303018093020108
:100110008FEF85B92FEF89E698E12150804090401C
:10012000E1F700C0000081E085B99F918F912F9188
:100130000F900FBE0F901F9018958CE08093690070
:1001400082E08DBB78948FEF84B980910401813077
:1001500071F51DC08FE99FE00197F1F700C0000025
:10016000809100019091010101969093010180938B
:1001700000018091020190910301019741F41092D6
:10018000010110920001109203011092020180916E
:10019000000190910101803A9F40E4F21092040125
:1001A00010920501109201011092000101C015B8D2
:1001B0008FEF99E628E1815090402040E1F700C0A0
:0801C0000000C3CFF894FFCF4B
:00000001FF
